{
  "_format": "hh-sol-artifact-1",
  "contractName": "Calend3",
  "sourceName": "contracts/Calend3.sol",
  "abi": [
    {
      "inputs": [],
      "stateMutability": "nonpayable",
      "type": "constructor"
    },
    {
      "inputs": [
        {
          "internalType": "string",
          "name": "title",
          "type": "string"
        },
        {
          "internalType": "uint256",
          "name": "startTime",
          "type": "uint256"
        },
        {
          "internalType": "uint256",
          "name": "endTime",
          "type": "uint256"
        }
      ],
      "name": "createAppointment",
      "outputs": [],
      "stateMutability": "payable",
      "type": "function"
    },
    {
      "inputs": [],
      "name": "getAppointments",
      "outputs": [
        {
          "components": [
            {
              "internalType": "string",
              "name": "title",
              "type": "string"
            },
            {
              "internalType": "address",
              "name": "attendee",
              "type": "address"
            },
            {
              "internalType": "uint256",
              "name": "startTime",
              "type": "uint256"
            },
            {
              "internalType": "uint256",
              "name": "endTime",
              "type": "uint256"
            },
            {
              "internalType": "uint256",
              "name": "amountPaid",
              "type": "uint256"
            }
          ],
          "internalType": "struct Calend3.Appointment[]",
          "name": "",
          "type": "tuple[]"
        }
      ],
      "stateMutability": "view",
      "type": "function"
    },
    {
      "inputs": [],
      "name": "getRate",
      "outputs": [
        {
          "internalType": "uint256",
          "name": "",
          "type": "uint256"
        }
      ],
      "stateMutability": "view",
      "type": "function"
    },
    {
      "inputs": [],
      "name": "owner",
      "outputs": [
        {
          "internalType": "address payable",
          "name": "",
          "type": "address"
        }
      ],
      "stateMutability": "view",
      "type": "function"
    },
    {
      "inputs": [
        {
          "internalType": "uint256",
          "name": "_rate",
          "type": "uint256"
        }
      ],
      "name": "setRate",
      "outputs": [],
      "stateMutability": "nonpayable",
      "type": "function"
    }
  ],
  "bytecode": "0x608060405234801561001057600080fd5b5033600160006101000a81548173ffffffffffffffffffffffffffffffffffffffff021916908373ffffffffffffffffffffffffffffffffffffffff160217905550610e35806100616000396000f3fe60806040526004361061004a5760003560e01c806334fcf4371461004f57806359c35bdf14610078578063679aefce146100945780638da5cb5b146100bf57806396b80d08146100ea575b600080fd5b34801561005b57600080fd5b506100766004803603810190610071919061072e565b610115565b005b610092600480360381019061008d91906106c7565b6101af565b005b3480156100a057600080fd5b506100a96103ce565b6040516100b69190610a09565b60405180910390f35b3480156100cb57600080fd5b506100d46103d7565b6040516100e1919061096c565b60405180910390f35b3480156100f657600080fd5b506100ff6103fd565b60405161010c9190610987565b60405180910390f35b600160009054906101000a900473ffffffffffffffffffffffffffffffffffffffff1673ffffffffffffffffffffffffffffffffffffffff163373ffffffffffffffffffffffffffffffffffffffff16146101a5576040517f08c379a000000000000000000000000000000000000000000000000000000000815260040161019c906109e9565b60405180910390fd5b8060008190555050565b6101b7610562565b8381600001819052508281604001818152505081816060018181525050600054603c84846101e59190610b76565b6101ef9190610aeb565b6101f99190610b1c565b8160800181815250508060800151341015610249576040517f08c379a0000000000000000000000000000000000000000000000000000000008152600401610240906109a9565b60405180910390fd5b6000600160009054906101000a900473ffffffffffffffffffffffffffffffffffffffff1673ffffffffffffffffffffffffffffffffffffffff163460405161029190610957565b60006040518083038185875af1925050503d80600081146102ce576040519150601f19603f3d011682016040523d82523d6000602084013e6102d3565b606091505b5050905080610317576040517f08c379a000000000000000000000000000000000000000000000000000000000815260040161030e906109c9565b60405180910390fd5b6002829080600181540180825580915050600190039060005260206000209060050201600090919091909150600082015181600001908051906020019061035f9291906105a7565b5060208201518160010160006101000a81548173ffffffffffffffffffffffffffffffffffffffff021916908373ffffffffffffffffffffffffffffffffffffffff16021790555060408201518160020155606082015181600301556080820151816004015550505050505050565b60008054905090565b600160009054906101000a900473ffffffffffffffffffffffffffffffffffffffff1681565b60606002805480602002602001604051908101604052809291908181526020016000905b8282101561055957838290600052602060002090600502016040518060a001604052908160008201805461045490610c3a565b80601f016020809104026020016040519081016040528092919081815260200182805461048090610c3a565b80156104cd5780601f106104a2576101008083540402835291602001916104cd565b820191906000526020600020905b8154815290600101906020018083116104b057829003601f168201915b505050505081526020016001820160009054906101000a900473ffffffffffffffffffffffffffffffffffffffff1673ffffffffffffffffffffffffffffffffffffffff1673ffffffffffffffffffffffffffffffffffffffff168152602001600282015481526020016003820154815260200160048201548152505081526020019060010190610421565b50505050905090565b6040518060a0016040528060608152602001600073ffffffffffffffffffffffffffffffffffffffff1681526020016000815260200160008152602001600081525090565b8280546105b390610c3a565b90600052602060002090601f0160209004810192826105d5576000855561061c565b82601f106105ee57805160ff191683800117855561061c565b8280016001018555821561061c579182015b8281111561061b578251825591602001919060010190610600565b5b509050610629919061062d565b5090565b5b8082111561064657600081600090555060010161062e565b5090565b600061065d61065884610a49565b610a24565b90508281526020810184848401111561067557600080fd5b610680848285610bf8565b509392505050565b600082601f83011261069957600080fd5b81356106a984826020860161064a565b91505092915050565b6000813590506106c181610de8565b92915050565b6000806000606084860312156106dc57600080fd5b600084013567ffffffffffffffff8111156106f657600080fd5b61070286828701610688565b9350506020610713868287016106b2565b9250506040610724868287016106b2565b9150509250925092565b60006020828403121561074057600080fd5b600061074e848285016106b2565b91505092915050565b600061076383836108c3565b905092915050565b61077481610bbc565b82525050565b61078381610baa565b82525050565b600061079482610a8a565b61079e8185610aad565b9350836020820285016107b085610a7a565b8060005b858110156107ec57848403895281516107cd8582610757565b94506107d883610aa0565b925060208a019950506001810190506107b4565b50829750879550505050505092915050565b600061080982610a95565b6108138185610ac9565b9350610823818560208601610c07565b61082c81610d59565b840191505092915050565b6000610844601583610ada565b915061084f82610d6a565b602082019050919050565b6000610867601483610ada565b915061087282610d93565b602082019050919050565b600061088a600083610abe565b915061089582610dbc565b600082019050919050565b60006108ad601f83610ada565b91506108b882610dbf565b602082019050919050565b600060a08301600083015184820360008601526108e082826107fe565b91505060208301516108f5602086018261077a565b5060408301516109086040860182610939565b50606083015161091b6060860182610939565b50608083015161092e6080860182610939565b508091505092915050565b61094281610bee565b82525050565b61095181610bee565b82525050565b60006109628261087d565b9150819050919050565b6000602082019050610981600083018461076b565b92915050565b600060208201905081810360008301526109a18184610789565b905092915050565b600060208201905081810360008301526109c281610837565b9050919050565b600060208201905081810360008301526109e28161085a565b9050919050565b60006020820190508181036000830152610a02816108a0565b9050919050565b6000602082019050610a1e6000830184610948565b92915050565b6000610a2e610a3f565b9050610a3a8282610c6c565b919050565b6000604051905090565b600067ffffffffffffffff821115610a6457610a63610d2a565b5b610a6d82610d59565b9050602081019050919050565b6000819050602082019050919050565b600081519050919050565b600081519050919050565b6000602082019050919050565b600082825260208201905092915050565b600081905092915050565b600082825260208201905092915050565b600082825260208201905092915050565b6000610af682610bee565b9150610b0183610bee565b925082610b1157610b10610ccc565b5b828204905092915050565b6000610b2782610bee565b9150610b3283610bee565b9250817fffffffffffffffffffffffffffffffffffffffffffffffffffffffffffffffff0483118215151615610b6b57610b6a610c9d565b5b828202905092915050565b6000610b8182610bee565b9150610b8c83610bee565b925082821015610b9f57610b9e610c9d565b5b828203905092915050565b6000610bb582610bce565b9050919050565b6000610bc782610bce565b9050919050565b600073ffffffffffffffffffffffffffffffffffffffff82169050919050565b6000819050919050565b82818337600083830152505050565b60005b83811015610c25578082015181840152602081019050610c0a565b83811115610c34576000848401525b50505050565b60006002820490506001821680610c5257607f821691505b60208210811415610c6657610c65610cfb565b5b50919050565b610c7582610d59565b810181811067ffffffffffffffff82111715610c9457610c93610d2a565b5b80604052505050565b7f4e487b7100000000000000000000000000000000000000000000000000000000600052601160045260246000fd5b7f4e487b7100000000000000000000000000000000000000000000000000000000600052601260045260246000fd5b7f4e487b7100000000000000000000000000000000000000000000000000000000600052602260045260246000fd5b7f4e487b7100000000000000000000000000000000000000000000000000000000600052604160045260246000fd5b6000601f19601f8301169050919050565b7f57652072657175697265206d6f72652065746865720000000000000000000000600082015250565b7f4661696c656420746f2073656e64204574686572000000000000000000000000600082015250565b50565b7f4f6e6c7920746865206f776e65722063616e2073657420746865207261746500600082015250565b610df181610bee565b8114610dfc57600080fd5b5056fea26469706673582212209c34b9351e56d05aa0ce48f9c9d7fbd43fdc0e85b259594c5efa16b8da6dd0cf64736f6c63430008040033",
  "linkReferences": {},
  "deployedLinkReferences": {}
}